:0A0000000C9446000C9464000C946C
:10000A0000000C9400000C9400000C9400000C9466
:10001A0000000C9400000C9400000C9400000C9456
:10002A0000000C9400000C9400000C9400000C9446
:10003A0000000C9400000C9400000C9400000C9436
:10004A0000000C9400000C9400000C9400000C9426
:10005A0000000C9400000C9400000C9400000C9416
:10006A0000000C9400000C9400000C9400000C9406
:10007A0000000C9400000C9400000C9400000C94F6
:10008A000000F894EE27ECBBF1E0F5BFE5BFE09382
:10009A006C008DE0A2E0BB27ED938A95E9F780E03A
:1000AA0090E1A0E0B1E0ED930197E9F78BBFEFEFA4
:1000BA00EDBFE0E1EEBFC0E0D5E00C946E00EA933C
:1000CA00EFB7EA93EBB3E095EBBBE991EFBFE991A8
:1000DA001895EFEFEABBE9B7E160E9BFE0916A0082
:1000EA00E260E0936A007894E0E0EBBBFFCFFFCFD9
:00000001FF
