:0A0000000C9450000C9400000C94C6
:10000A0000000C9400000C9400000C9400000C9466
:10001A0000000C9400000C9400000C9400000C9456
:10002A0000000C9400000C9400000C9400000C9446
:10003A0000000C9400000C9400000C9400000C9436
:10004A0000000C9400000C9400000C9400000C9426
:10005A0000000C9400000C9400000C9400000C9416
:10006A0000000C9400000C9400000C9400000C9406
:10007A0000000C9400000C9400000C9400000C94F6
:10008A00000001008F00120006008C0044004000AE
:10009A000D0000000C00F894EE27ECBBF1E0F5BF70
:1000AA00E5BFE0936C008DE0A2E0BB27ED938A9553
:1000BA00E9F780E090E1A0E0B1E0ED930197E9F77C
:1000CA008BBFEFEFEDBFE0E1EEBFC0E0D5E00C94EF
:1000DA006E00649784E160E070E0ECE8F0E02AD01A
:1000EA00EFEFE7BBE4BBE881E8BBE5BB00E010E06B
:1000FA000A30E0E01E07ACF420E030E02A30E0E00D
:10010A003E074CF4F9010FD0E5BBA8EEB3E01ED0D0
:10011A002F5F3F4FF3CFF80106D0E8BB0F5F1F4FA9
:10012A00E7CFE4CFFFCFDE01EE0FFF1FAE0FBF1FF9
:10013A00EC910895AF93BF93DB01AC0FBD1F0590FF
:10014A000D928A95E1F7BF91AF910895109639F013
:10015A00A89580EA9FE00197F1F71197C9F70895EA
:00000001FF
