:040000000C9450000C
:100004000C9400000C9400000C9400000C9400006C
:100014000C9400000C9400000C9400000C9400005C
:100024000C9400000C9400000C9400000C9400004C
:100034000C9400000C9400000C9400000C9400003C
:100044000C9400000C9400000C9400000C9400002C
:100054000C9400000C9400000C9400000C9400001C
:100064000C9400000C9400000C9400000C9400000C
:100074000C9400000C9400000C9400000C940000FC
:100084000C9400000C94000001008F001200060084
:100094008C00440040000D0000000C00F894EE2792
:1000A400ECBBF1E0F5BFE5BFE0936C008DE0A2E0AE
:1000B400BB27ED938A95E9F780E090E1A0E0B1E0F9
:1000C400ED930197E9F78BBFEFEFEDBFE0E1EEBFF2
:1000D400C0E0D5E00C946E00649784E160E070E0C9
:1000E400ECE8F0E04FD000E010E020E030E0EFEF8B
:1000F400E7BBE4BBE0E0E1BB34D0F9013BD0E0B3C3
:10010400E23099F42F5F3F4FEAE0F0E0E217F307A3
:1001140031F40F5F1F4F25D020E030E003C0A4EF7F
:10012400B1E03CD0F90126D01AC0E0B3E130B9F413
:100134002150304000240016010629F0EFEFFFEFB4
:10014400E217F30709F006C0015010400AD029E075
:1001540030E003C0A4EFB1E021D0F9010BD0CFCF40
:10016400FFCFF801DE01EE0FFF1FAE0FBF1FEC91B2
:10017400E8BB0895DE01EE0FFF1FAE0FBF1FEC9129
:10018400E5BB0895AF93BF93DB01AC0FBD1F059092
:100194000D928A95E1F7BF91AF910895109639F0C9
:1001A400A89580EA9FE00197F1F71197C9F70895A0
:00000001FF
